:020000040000fa
:080000000002040000000000f2
:020000040000fa
:10000800da020000da020000da020000da02000078
:10001800da020000da020000da020000da02000068
:10002800da020000722c0000da020000c82b00007f
:10003800da0200003a2d0000da020000da020000bd
:10004800da020000da020000da020000da02000038
:10005800da02000072290000da020000da02000069
:10006800da020000da0200008e2d00009a2d00004e
:10007800da020000da020000642d0000da02000053
:10008800da020000da020000da020000da020000f8
:10009800da020000da020000da020000da020000e8
:1000a800da020000da020000da020000da020000d8
:1000b800da020000da020000da020000da020000c8
:1000c800da020000da020000da020000da020000b8
:1000d800da020000da020000da020000da020000a8
:1000e800da020000da020000da020000da02000098
:1000f800da020000da020000da020000da02000088
:10010800da020000da020000da020000da02000077
:10011800da020000da020000da020000da02000067
:10012800da020000da020000da020000da02000057
:10013800da020000da020000da020000da02000047
:10014800da020000da020000da020000da02000037
:10015800da020000da020000da020000da02000027
:10016800da020000da020000da020000da02000017
:10017800da020000da020000da020000da02000007
:10018800da020000da020000da020000da020000f7
:10019800da020000da020000da020000da020000e7
:1001a800da020000da020000da020000da020000d7
:1001b800da020000da020000da020000da020000c7
:1001c800da020000da020000da020000da020000b7
:1001d800da020000da020000da020000da020000a7
:1001e800da020000da020000da020000da02000097
:1001f800da020000da020000da020000da02000087
:10020800da020000da020000da020000da02000076
:10021800da020000da020000da020000da02000066
:10022800da020000da020000da020000da02000056
:10023800da020000da020000da020000da02000046
:10024800da020000da020000da020000da02000036
:10025800da020000da020000da020000da02000026
:020000040000fa
:100400002f1921000eff27000e01880000000000b8
:10041000000020000000e000020032000001200087
:10042000200288000c000700e0ea22000100200002
:100430000f000700000020000000e0000200320072
:1004400000000200000000006e2e0200000000000c
:100450000040da000000fe00800620000000e000fe
:1004600002003200002020009001880000000600f9
:10047000a1028800800078000000eb001a0037001d
:10048000e280400054a0b4009101ba00e280400034
:1004900054a0b4009102ba00e280400054a0b4001d
:1004a0000002eb00472bde00f507b200a601880032
:1004b000602ce10008003a000049eb000201e8006e
:1004c000020039003420ec0002f0a0008301e900b2
:1004d000f9ff3e00040037006128e100010032000e
:1004e0000082eb00040007001101ba000200e000e6
:1004f000e3ff3a000000060004d0a300e20f490029
:100500001c003900810278003549ba000201e80078
:10051000020039003420ec0002f0a0008301e90061
:100520000f0032002549ba000201e800020039003c
:100530003420ec0002f0a0008301e9000800320042
:100540000400e0000600320015c9ba000201e8000c
:10055000020039003420ec0002f0a0008301e90021
:100560008180e80054a0b4000300e000e2ff3a00fc
:10057000000006009102ba00055978008301e900e5
:10058000f7ff3200c82ade00055978008301e90030
:10059000f3ff32000400e000f1ff320011d9ba008d
:1005a000eeff37005809040000000000040d0400ad
:1005b000000000000040da000000fe0003f0a2008e
:1005c000889fbe008a9fbe008c1f7800d80107005c
:1005d000df0133006450e1004f0032006420e1008d
:1005e0005200320003826c0007003b000905d00076
:1005f0000306d000820f54000c065d000200390093
:1006000002003200890178000306780085825500d7
:1006100004003d000003fd008103fd008502ea00a7
:100620008b854200840f720002003b0060001000c6
:10063000e08018006011b8000005eb007a28e100a6
:100640000a00390006007800c75ddd00f707b20038
:10065000878075002d003700828171000a017800c3
:10066000610560008180d1000080d3008502e9002f
:10067000f9ff3b00060440008784480002003b006d
:1006800060041400e0841c000988a3000700320005
:100690008a81710082817100610164008904d10046
:1006a0000884d3008b05e800170037000978a30001
:1006b00013003a000b00e000130034008b05e90042
:1006c0000804440089844c000a4474000978a3009b
:1006d0000d003a000b00e000070034008b05e90034
:1006e0000804440089844c0001003a000b002000fb
:1006f0000978a300f7ff32000001eb000200370089
:10070000828171000a0178004e0107000cf0a700f9
:1007100001f0a000970137006420e10002003a00d8
:10072000838f6c00970133000801be000200be00f9
:10073000900137002800fa00889fbe008a9fbe0003
:100740008c9fbe0003866b00d10007006400e100af
:10075000440032006408e1004a0032006100e10018
:10076000460032006108e10049003200ec06470013
:100770006000b8003d02be003d03be00f486570095
:100780006011b8003d04be003d05be007d032000a1
:100790000b0037000000a0008d06e90013003200b6
:1007a0000402420085824a0006034b0087834b0007
:1007b0000000400081804800020149008381490017
:1007c0000802520089825a000a035b008b835b0097
:1007d000f0ff3b000802420089824a000a034b00f6
:1007e0008b834b008d06e900edff3a008482720096
:1007f00086827200f707b200878272000100320021
:10080000150020001e0490003e0b900006035400cb
:10081000e63fb0000368a300070032000000a70015
:100820000500a0008301d1000281d3008180d300a4
:100830000080d3000603e8008301d1000281d300c9
:100840008180d3000080d3000002eb000482d2003c
:100850006300070003f0a1000cf0a70003f0a00064
:100860009f003700640247006408e10099003200ed
:100870003400be003401be00f6ff37006108e1001d
:10088000940032006011b8006000b800f1ff37003a
:1008900003ff270002002000fbff3700889fbe00f7
:1008a0008a9fbe008c1f78002101070028013300b9
:1008b00003866c006450e1002e0032006420e100e9
:1008c000330032006150e1002f0032006120e1006e
:1008d0003100320085855500eb07b000090020008b
:1008e00008042000050037000804440089844c00f7
:1008f0000a0031000603430087834b0000015300c8
:1009000081815b00f8ff33000203be000800a000f5
:100910000804440089844c00f6ff3900c639dd0024
:100920008301730001003200130020008904d1000c
:100930000884d3000998a300050032000800a7002e
:100940000300a0008904d1000884d3008b05e800cf
:100950008904d1000884d3000001eb000281d20099
:10096000b800070001f0a1000cf0a70001f0a00002
:10097000000137006420e100020132000801be00de
:100980000200be00f7ff37006120e100fd003200e9
:100990006000b800f3ff37000000200001f82700d6
:1009a000f0ff3700839f68000100e00002003d0077
:1009b00060001000e08018000300e00002003d002d
:1009c00060011100e08119009a0107004f00e0006a
:1009d00002003b0060001000e080180000000600ec
:1009e0001800200057002000080453000d003d00af
:1009f0000600200097fc2f000740e1001e00340095
:100a000084827200610260008301d1000281d30000
:100a10008180d3000080d3000804e800f8ff3a008a
:100a200047002000610460000504740004046400b1
:100a30000d00320061004000e08048006001490084
:100a4000e081490003b8a500070032000603e80072
:100a50006538e10004003a008301d1000281d3002f
:100a60008180d3000080d300f87f20000830e100af
:100a700003003500080378006000b8006011b8007a
:100a80004433dd00f300b200830173000000060070
:100a9000680447000294be000094be00fc044700b6
:100aa0008694be008494be00090078007f01070090
:100ab000080078007d01070099007800814f7000e0
:100ac0000b003b000800be006a0107004f00b100a8
:100ad00003003700f3ff2700f2ff2f006110b90079
:100ae0004f06be004f05be004f04be000080fa0056
:100af000000006001400200093013700f4ff2f00cf
:100b0000910137001400fa00889fbe008a9fbe0042
:100b10008c9fbe000004be000205be0068004700b6
:100b20000a90be000890be00600107000070a70098
:100b30000bf0a100304320009e0290008082520002
:100b4000b0fe2f000028e10011003d00b0fc2f0096
:100b50000028e100150034001e0990008e08900066
:100b60007e0090000501b0000201d1008180d30019
:100b70000080d3008502e800fbff3a000b00e00094
:100b8000d7ff3b0060001000e0801800d4ff370062
:100b9000f0ff2f00f1ff27000b00e000d0ff3b002b
:100ba0000100280000002000cdff37006000b800e1
:100bb000cbff37000001be00480007000470a7000b
:100bc00003f0a1006509b100160032000d003500e8
:100bd0006828e10006003500f0ff2f00f1ff270034
:100be0000300e00013003b000100280000000500a6
:100bf00000004000818048008502e900fcff3a00c7
:100c000008003700f88f420002003c008000eb0033
:100c1000000005008100d1000080d3008502e800bb
:100c2000fcff3a000300e00002003b0060001000ff
:100c3000e0801800000006004f89de008201780085
:100c40005c01370081002000618055000b003d00f1
:100c50000b00200061fe2f000100e1001d003400a8
:100c600082817100610164008904d1000884d3008d
:100c70000000e800faff3a00710020006100640003
:100c800003007000020060000900320061044400ab
:100c9000e0844c000988a500050032008b05e800bf
:100ca0006808e10002003a008904d1000884d300fa
:100cb000f20f20000258e10005003d00c75ddd0095
:100cc000f907b2008980750008007800000006006e
:100cd0000bf827008b00780000000500c70ade0033
:100ce000f107b200f50fb20008003200e1cf420078
:100cf000020032000170a00024000500810f700086
:100d0000010032000408050044000500810f700056
:100d100002003a00140005008502e90000004000ce
:100d200081c04800fcff3b000170a00024000500ca
:100d30000004be00e9ff07000003be000405be007a
:100d40000200be00e5ff0700844f750000000600aa
:100d50000200be006450e100050036006420e1009e
:100d6000020036000968a30001003a000800be0036
:100d70000160a0004f0678004f05be004f04be0082
:100d800000000600f0ff2f00f1ff2700f9ff3700f9
:100d90002800fa00889fbe008a9fbe008c9fbe007c
:100da00003866b003aff07000028a30064003a00a6
:100db0000128a30067003a000008a30062003a007f
:100dc0000108a30065003a001e009000be089000d4
:100dd00081064000ed3fb100f4805700ee01900025
:100de000111ab8008e099000311bb8009e099000be
:100df000311cb800511db800f485570046000700ab
:100e0000fe0190003a0007008b85e8003e000700d5
:100e10008e09900040000700ee01900034000700aa
:100e20008b85e800380007008e099000400007001d
:100e30009e0990001b18b800890440000a854800ec
:100e4000fe019000340007008b85e80038000700a1
:100e5000ee019000300007008e0990001b18b800ca
:100e6000890440000a8548000a98a30008003a0057
:100e70000402420085824a0006034b0087834b0030
:100e800008044c0089844c000a054d008d06e900d9
:100e900084827200850273004c3add008502720084
:100ea0000100320015002000443ade001400b200b8
:100eb0004538de00cb45dd000b007000c540de008c
:100ec000cb4ddd008b8070004549de00cb55dd0049
:100ed0000b017100c551de000d037800c0fe070054
:100ee00003f0a1000cf0a70003f0a000fcfe370007
:100ef0001b18b8008502400006834800e0834b00c1
:100f000060044c00070037001b18b80006034000bf
:100f100087834800faff37001b18b800870340009a
:100f200008844800e0844c0060054d000000060085
:100f30001b18b8000804400089844800faff3700f5
:100f40000108a300e3fe3a005800be005801be00ad
:100f5000e3ff37000008a300defe3a000904780032
:100f6000f9ff3700889fbe008a9fbe008c1f780063
:100f70006fff070076ff330003866c006450e100ca
:100f8000240032006420e100270032006150e100bb
:100f9000220032006120e100210032008b854200f6
:100fa000eb07b1000134b800003ab8000804420071
:100fb00089844a00013ab8000030b80088804000b7
:100fc00009014a000400330000004000818048000d
:100fd000020149008b05e900c909dd0083017000a9
:100fe0000100320013002000c814de004814dd00a8
:100ff0004709de001200b200c808de000884700055
:1010000010ff070001f0a1000cf0a70001f0a00004
:1010100058ff37006120e1005aff32000801be008e
:101020000200be00f7ff37006150e100fcff3a000c
:1010300054ff37006022b800060220000000d000f4
:101040008180d2000482d2008582d2000000a000fc
:101050000202520083825a00030031000202420061
:1010600083824a000000a1000603e900f3ff3a0072
:1010700000000600e48240001078a3000700320060
:10108000640240001178a3003400be001401be00c9
:10109000040032000330a700000006003500be0047
:1010a0001501be000330a00000000600800078009b
:1010b0005002be005003be004439de00f700b2000b
:1010c000f37f200003016100090032000218e100f3
:1010d00016003a008501720083017300838173005a
:1010e0000008200015003a004000200013003700df
:1010f00085017200830173008381730005003a004b
:1011000004a8be0006a8be00100020000b00370097
:101110000201e9000402420085824a0006034b00f6
:1011200087834b000748a300f9ff32000740a00067
:1011300004a8be0006a8be00200020008000980081
:101140009200980000000600889fbe008a9fbe00a3
:10115000841f7800f6fe07004f007800110033006e
:10116000f0ff2f00838f6c0006003b000405650034
:101170000a00a7000800370009f0a60010002000b0
:1011800008003700820f5400838f5c000300390091
:101190001000200001003e000000200009f0a70020
:1011a0000000ea004f05be004f04be000000e00052
:1011b00000000600881f7800030478000300e000a8
:1011c00007003d0060001000e08018006001190079
:1011d000e081190002003b0001f02d000300370000
:1011e0000400070008f0a70001f0a0004f047800f9
:1011f00000000600889fbe008a9fbe00008270002b
:101200000402710004827100260032000004be0056
:101210000200be006011b8006b092000950220009a
:101220000182cf000a0039000541b1000082cf00e1
:10123000070039000541b1000982cf0004003900e0
:101240000541b1000882cf00010039000541b1001d
:1012500005425200120032000a003b0082817100f8
:10126000610164008100d1000080d3008984d30033
:101270000884d3008b05e8000442e800f7ff3a0039
:10128000070037000804440089844c00000048002f
:10129000818048008b05e9000442e900f9ff3a002b
:1012a00068fe07004f05be004f04be0000000600a8
:1012b000881f7800020478000801780041060700c2
:1012c000080040004f047800000006000000fa000b
:1012d000881f780000047800ea8157003fb9970022
:1012e0008800780080952000070007000000e000db
:1012f0000200350000044400004ceb004f0478006d
:101300000080fa00000006006200fa00889fbe001c
:101310008a1f7800000578008104780002047800b4
:101320008300780080f92f000f0040005508070067
:101330009a979f00a9979f000000eb00b09f9f0025
:101340001885fb008a04fb000a05ea004f55de0001
:1013500050022000808f54000d003200e10f550034
:101360000b003a000a017800880078002f9097005f
:101370009f91970003000100a0979f000000e000ec
:101380008e0032003f9897000000e800b09f9f0059
:101390000a04440050022000808f540004003200f0
:1013a0000900e000e6ff3a003f989700840037000c
:1013b0000000eb00909f9f00809f9f00f0979f0090
:1013c000e0979f00d0979f00c0979f0007003700cd
:1013d000811521000100500000004000c1142100cf
:1013e000808040005f98970011007000d09f9f00a0
:1013f0008804780009047800384578008a00fb00ea
:1014000080152100f60507000000e000f0ff3a001b
:10141000a1c2b300814f55000e003a00cf8897005b
:101420000180e900c08f9f0010007800c09f9f00de
:101430000000e00005003d000000ea00c09f9f00a2
:101440005f9897000020a000d09f9f000904e8004b
:101450000f003700c09f9f000000eb000500370021
:10146000f2ff2700820f500002003200ea00b900ac
:10147000008040000904780088047800b900fb006f
:101480000103b100e98f5000f5ff3600c09f9f00b7
:10149000e0c2b300984f1000020032000080eb0061
:1014a00019003700a0c2b300d84f100007003a005f
:1014b000cf8897000180e900c08f9f00100078005e
:1014c000a09f9f000804e800100037000000eb0018
:1014d000a09f9f008800780005003700f3ff2700d9
:1014e000830f500002003200ea00b9000000410002
:1014f00001047800880078003101fb000203b1008c
:10150000e90f5100f5ff3600a09f9f009844780036
:101510008900fb0040142100b10507000000e00035
:10152000020032000804e800010037008044eb00ac
:10153000c97f9f0080c6b30080cf540004003a00ea
:1015400098cf14000a003a006640500006003700a9
:10155000c0c6b30080cf540005003a0098cf1400f5
:1015600003003a0065404000c07f9f000804e80087
:101570001801fb00e3fb2f008f81410081f92f0050
:101580008f804000a0f92f000f00400010000700de
:101590000000e00009003a00e1fb2f008f804000ce
:1015a000a0f92f000f004000fa0607000000e0003d
:1015b000020035000804e80061ff37000080eb00fe
:1015c0004f0578004f04be000080fa0000000600be
:1015d000881f7800e4c6b300844f5100bc0032007d
:1015e00010003c006b425200844f51001800320042
:1015f00005003c0054c2b300844f5100f400320097
:1016000084c5b3000f00370044c6b300844f5100b7
:101610001500320065424200844f5100ef003a004d
:101620001100370004c7b300844f5100db003200c3
:101630005700350065424200844f5100540032008b
:1016400063424200844f5100e4003a0050003700ea
:101650001181e90082087800f0009000818141004a
:1016600092497800e300370020629000c5c6b300bd
:10167000854f520007003a009102780064825200c0
:10168000840878001402be004fabde0086037800a9
:101690001100370015c7b300854f52000300320018
:1016a000a5c6b300854f520006003a0091027800ab
:1016b00068825200840878005403be004402be00d1
:1016c000050037001182e9008408780014027800d0
:1016d000cfa2de00612bb9000498be000690be00c8
:1016e000a060900088c6b30088cf50000d00320083
:1016f00028c6b30088cf500004003a000402fb0063
:10170000cfa2de00612bb9000800370048c7b30044
:1017100088cf5000030032006644440088cf500058
:1017200004003a00cfa2de00612bb9000498be008d
:101730000690be003002be002003be00f000900004
:10174000e00f5200e08f5a00e00f5b00e08f5b007b
:1017500003003d0001824100d5c2b3000a003700fa
:10176000001290000418a30003003200018241001f
:10177000b5c2b300040037000408a3004f003200d4
:101780000182410005c2b300054a780049003700d4
:1017900020629000c5c6b300854f520006003a0093
:1017a0009102780064825200840878001402be001e
:1017b0006033b8001100370015c7b300854f5200e1
:1017c00003003200a5c6b300854f520006003a0060
:1017d0009102780068825200840878005403be00a9
:1017e0004402be00050037001182e9008408780039
:1017f000140278008002eb006033b8000498be0049
:101800000690be00a060900088c6b30088cf50004c
:101810000d00320028c6b30088cf500004003a0003
:101820000482fb008002eb006033b8000800370040
:1018300048c7b30088cf500003003200664444001c
:1018400088cf500004003a008002eb006033b800fb
:101850000498be000690be00801090000138a300de
:10186000160032003002be002003be00e00f52001e
:10187000e08f5a00e00f5b00e08f5b000f0032004a
:1018800081c7b300814f51000300320081c5b3000e
:10189000814f510009003a00f000900001824100a0
:1018a00005c3b300054a78008100e80001824100c9
:1018b000024a78008100e80071009800f000900072
:1018c0008181410063009800824078003e0037002b
:1018d000a0619000c4c6b3001181e90084cf51001b
:1018e000220032000a003c006442520084cf5100c2
:1018f0002500320004c2e80084cf510013003200fa
:101900006842520084cf51001e003a000a0037009e
:1019100044c7b30084cf51001b003200664242002e
:1019200084cf5100180032006942520084cf510028
:1019300014003a0005003700820878009200780011
:1019400040589000804878002c00370082087800ca
:1019500092007800600a9000cfa2de00612bb900ef
:101960008498be008690be0024003700820878006c
:101970009200780060099000cf91de008288be005e
:101980001e0037001181e90082087800920078007b
:101990006008900080087800180037001181e90085
:1019a0008208780012027800cfa2de00612bb90015
:1019b0000498be000690be00f000900081814100b6
:1019c0006300980081c7b300bb0407000b00370019
:1019d000f00090008181410005003700f000900088
:1019e000818141000204e00001003a0052c2b300cc
:1019f000824978008100e800710098000000eb0047
:101a00004f04780000000600881f78000204780068
:101a1000080178006b040700080040004f047800bc
:101a2000000006000000fa00881f7800000478001b
:101a3000ea8157003fb997008800780040d0200025
:101a4000070007000000e000020035000004440029
:101a5000004ceb004f0478000080fa000000060004
:101a60006200fa00889fbe008a1f78000005780097
:101a700081047800020478008300780080f92f0048
:101a80000f0040007f0607009a979f00a9979f00cc
:101a90000000eb00b09f9f001885fb008a04fb004c
:101aa0000a05ea004f55de0050022000808f5400e6
:101ab0000d003200e10f55000b003a000a017800da
:101ac000880078002f9097009f91970003000100f5
:101ad000a0979f000000e0008e0032003f98970022
:101ae0000000e800b09f9f000a044400500220005c
:101af000808f5400040032000900e000e6ff3a0045
:101b00003f989700840037000000eb00909f9f00f3
:101b1000809f9f00f0979f00e0979f00d0979f00c5
:101b2000c0979f00070037002117210001005000d7
:101b30000000400061162100808040005f989700ff
:101b400011007000d09f9f0088047800090478007d
:101b5000384578008a00fb00201721002004070088
:101b60000000e000f0ff3a00a1c2b300814f550031
:101b70000e003a00cf8897000180e900c08f9f00d7
:101b800010007800c09f9f000000e00005003d00ad
:101b90000000ea00c09f9f005f9897000020a0000f
:101ba000d09f9f000904e8000f003700c09f9f00ee
:101bb0000000eb0005003700f2ff2700820f500005
:101bc00002003200ea00b9000080400009047800f9
:101bd00088047800b900fb000103b100e98f5000d0
:101be000f5ff3600c09f9f00e0c2b300984f100081
:101bf000020032000080eb0019003700a0c2b300e1
:101c0000d84f100007003a00cf8897000180e90004
:101c1000c08f9f0010007800a09f9f000804e8007c
:101c2000100037000000eb00a09f9f0088007800a4
:101c300005003700f3ff2700830f50000200320039
:101c4000ea00b90000004100010478008800780033
:101c50003101fb000203b100e90f5100f5ff36002e
:101c6000a09f9f00984478008900fb00e0152100a8
:101c7000db0307000000e000020032000804e80077
:101c8000010037008044eb00c97f9f0080c6b3008d
:101c900080cf540004003a0098cf14000a003a00a4
:101ca0006640500006003700c0c6b30080cf540025
:101cb00005003a0098cf140003003a006540400048
:101cc000c07f9f000804e8001801fb00e3fb2f0021
:101cd0008f81410081f92f008f804000a0f92f00f3
:101ce0000f004000100007000000e00009003a006b
:101cf000e1fb2f008f804000a0f92f000f00400073
:101d0000240507000000e000020035000804e80098
:101d100061ff37000080eb004f0578004f04be00e4
:101d20000080fa0000000600889fbe008a1f78002d
:101d300000047800824478000305780070c6b30080
:101d400080cf54001a003c0000c0e90080cf54004e
:101d5000cc003d006d40500080cf5400790032002f
:101d60000b003c007140500080cf540037013c0014
:101d700000c0e90080cf5400c2003d0050c2b30053
:101d800080cf54002e0132007c4040000500370017
:101d900030c6b30080cf54001a0032001f003c0050
:101da00000c0e90080cf540028013a00b500370098
:101db000f0c6b30080cf54006200320007003c0040
:101dc0006640500080cf540014003200654040004f
:101dd00080cf54001d013a00d600370050c7b30031
:101de00080cf5400570032006340400080cf540041
:101df0005400320002c7b30082cf540013013a00ee
:101e0000010137001181e900820878007800900014
:101e100000054500124d780012013700286090003f
:101e2000c2c6b300824f500007003a00110178008b
:101e300064005100800878001000be004f89de0069
:101e4000820178001100370012c7b300824f5000a2
:101e500003003200a2c6b300824f500006003a00d1
:101e60001101780068005100800878005001be0020
:101e70004000be00050037001180e90080087800ae
:101e800010007800cf80de006109b900009cbe0020
:101e90000294be002862900085c6b300854f5200b0
:101ea0000d00320025c6b300854f520004003a00f1
:101eb0000000fb00cf80de006109b9000800370098
:101ec00045c7b300854f520003003200e6c242000e
:101ed000854f520004003a00cf80de006109b9004e
:101ee000009cbe000294be003802be002803be0063
:101ef00078009000e00f5200e08f5a00e00f5b0086
:101f0000e08f5b0003003d0080004500d2c2b300bb
:101f10000a003700881090000118a3000300320067
:101f200080004500b2c2b300040037000108a300de
:101f30004f0032008000450002c2b30082487800a2
:101f40004900370028609000c2c6b300824f50009d
:101f500006003a0011017800640051008008780002
:101f60001000be006011b8001100370012c7b300a6
:101f7000824f500003003200a2c6b300824f5000cf
:101f800006003a00110178006800510080087800ce
:101f90005001be004000be00050037001180e9007e
:101fa00080087800100078008000eb006011b80015
:101fb000009cbe000294be002862900085c6b3005b
:101fc000854f52000d00320025c6b300854f5200e8
:101fd00004003a000080fb008000eb006011b800b4
:101fe0000800370045c7b300854f52000300320098
:101ff000e6c24200854f520004003a008000eb0028
:102000006011b800009cbe000294be000810900051
:102010000038a300160032003800be002801be00c0
:10202000e00f5000e08f5800e00f5900e08f59009a
:102030000f00320080c7b30080cf5400030032008d
:1020400080c5b30080cf540009003a0078009000aa
:102050008000450002c3b300824878000000e80019
:1020600080004500894878000000e800700498006e
:1020700078009000000545006a04980089407800c7
:102080006c00370028619000c0c4b300804f51003d
:1020900006003a00110178006800510080087800bd
:1020a0005001be004000be0005003700110178005d
:1020b00064005100800878001000be004905070048
:1020c000009cbe000294be00b80090007800900012
:1020d0000100e00003003d0080004500d2c2b300d3
:1020e0000a003700881090000118a3000300320096
:1020f00080004500b2c2b300040037000108a3000d
:10210000050032008000450002c2b300824878001a
:102110000000e80070049800780090000005450079
:102120006a0498008900fb0008007800530007004b
:102130004e00370028619000c3c6b3001180e9004b
:10214000834f5100240032000a003c00e4c15100da
:10215000834f51002700320083c1e800834f5100b4
:102160001500320020c6b300804f510020003a0015
:102170000a00370043c7b300834f51001d003200ef
:10218000e6c14100834f51001a00320010c7b3006e
:10219000804f510016003a00060037001180e90018
:1021a0008008780010007800485c900008487800ab
:1021b0002e0037001180e9008008780010007800b8
:1021c000680a9000cfa2de00612bb9000498be001f
:1021d0000690be00250037008008780010007800c7
:1021e00068099000cf91de000288be001f00370012
:1021f0001180e9008008780010007800680c9000d9
:1022000008087800190037001181e9008208780079
:1022100012027800cfa2de00612bb900049cbe0040
:102220000694be00f8009000010545006a0498007d
:1022300080407800080078009f0207000b003700fc
:1022400078009000000545000500370078009000f8
:10225000000545000904e00001003a0059c2b3003e
:10226000094d78000000e800700498000000eb00c1
:102270004f0578004f04be00000006002f04b00098
:10228000889fbe008a9fbe008c9fbe008e1f780074
:102290000007780081f79f003e04be002e05be00b7
:1022a0005e0890000000e00002003d006000200099
:1022b000500f98008e00780020fb2f000f00400088
:1022c00053020700e20f50000a003a0030002000dd
:1022d000100f9800b1c9b3000ff097008140400083
:1022e000e00c2100e1cf50000d003e00a00c2100c9
:1022f0000b0037000000e0000f0034003000200029
:10230000100f9800b1c9b3000ff197008140410050
:10231000600d2100e1cf500001003e00200d2100a2
:10232000ee009000b0487800b06878001040780067
:1023300090409800f30037000000e00005003a00ec
:1023400022fb2f000f014100001978008001eb00f3
:10235000e70037006022b8006033b8000800be0014
:102360000a01be00950407000000e00001003d00e6
:102370000bf0a200705927009f9897000088b900c1
:10238000026a28001300200086f907006406500046
:102390009c9f9f0013003b0063061600c0ff2f00a8
:1023a000000666008c01ea00939f9f00ad0d21009e
:1023b0000800be000a01be00070037000c08a30099
:1023c000030032003d02be002d03be0070fa07007c
:1023d0000c86d100e88646000c00e000f7ff3c00c8
:1023e000180037000c00e00018003200c0ff2f007a
:1023f000000666009c9f9f00ad0d21006000b800a4
:102400000200200003ff2300070037000c08a30090
:10241000030032003d02be002d03be005cfa07003f
:102420000c86d100e88646000c00e000f7ff3c0077
:102430000002be000203be000800be000a01be008a
:10244000bcf807000004be000205be00de089000d4
:1024500060c6b3000ff29700804f520004003200b4
:102460006000200062c4b300824f520002003a00b4
:102470009f9a97006a80420081004000f1b79f0058
:1024800001037800f30f53000200340037012000ed
:10249000f7b79f0000c3b300c0779f0056fb2f0023
:1024a0000f0343000e007800a0b79f0006077800d6
:1024b0003d0037000800be000a01be0091f9070088
:1024c0000006be007fb1970068015100f2b79f007f
:1024d0004240a9000c003400610407000002be0065
:1024e0000203be000800be000a01be005f04070030
:1024f0006022b80046782d007719240024fa0700de
:102500000004be000205be00e80047008e00200067
:102510000802be000a03be00b4b79f00c5b79f0003
:10252000d6b79f00e7b79f000c01be0001047800fa
:102530000c003700a400200005002000c0fd2f0083
:102540000f0040008a0107006fa89700ffa89700be
:102550000fb197009fb1970005c3b3000564410018
:102560000001be00e00f5100e08f5900030034006d
:102570000e07e900e10f4700eeff3a0088007800ff
:102580003fb49700cfb497005fb59700efb59700c1
:102590000200370000c3b300806078000e07e90036
:1025a000fcff3b00688740007fb397000600e00017
:1025b000070034006022b8006033b8000800be0095
:1025c0000a01be00020407000000e000b9ff3c0061
:1025d0000e0378002fb7970051fb2f008f8040002b
:1025e000010353009f9b970067804300909f9f00cb
:1025f000020037000603e9000000e900010178004d
:102600008200780003c3b300b1cf1100f9ff32009c
:10261000909f9f00de09900061c6b3000ff2970003
:10262000814f52000300320061c4b300814f520059
:1026300002003a000000e8000a0037001000200005
:1026400051c6b3008ff2970081cf520005003200cf
:102650000540780050c4b2000080fb000000e90093
:102660004f00de0083014000868f510001003400de
:10267000860178000300e0001d00350000c3b300b0
:10268000868f510006003d00030241006940400072
:1026900041c3b30094cf100001003c0069405000da
:1026a0008300e900810041000100370084017800c7
:1026b0000302e90001037800a142780080cf5200b4
:1026c000faff320091c3b300814f500001003a007d
:1026d000054be8000400e00005003d000201e900b0
:1026e0008301e8001f9b97000603e800969f9f0068
:1026f0008ff397008700fb001f9a97000e00780069
:10270000060007004f0778004f06be004f05be00c9
:102710004f04be002f04b10000000600f087470000
:10272000889fbe008a9fbe008c9fbe008e1f7800cf
:1027300000047800814478000205be000406780099
:102740000b00e00002003c001b0020000a192100e1
:1027500060c6b30080cf54000e00320060c4b300e6
:1027600080cf54000b00320070c6b30080cf5400fd
:102770000300320070c4b30080cf540085003a00db
:10278000e40f46008300350058089000800f560083
:1027900080003d000c06e80060c6b30080cf540006
:1027a0001000320060c4b30080cf54000d0032002e
:1027b000081090000038a30004003a005808900068
:1027c000808f550001003d005b0c98005808900078
:1027d0000c005000500c980002003b000000eb0081
:1027e000500c980098089000680090000c00e000e1
:1027f00028003c000100400002c3b30002487800fa
:102800008100e800110c9800580890000000e000da
:1028100003003c00081090000038a30006003200be
:102820006800900001004000e2c2b3000248780056
:102830008100e800110c9800580890008c00ea0014
:10284000810f500001003d000006ea008c00ea0004
:10285000210c9800000646005c0c98008b0f560077
:10286000010034000b0678003c0c9800e800900052
:1028700018089000008040000c0178008a00780061
:10288000d0000700580890000c0650004c0c98002f
:10289000940037008c8f550019003d000100400066
:1028a0000b0178008a007800c60007001808900025
:1028b00000804500100c98008b0556002b0c9800ea
:1028c000d80890000100e00003003c008810900050
:1028d0000138a30007003200e800900000804000ab
:1028e000e1c2b30001487800380890000000e80019
:1028f000300c980058089000400c98007900370080
:10290000010040000c0178008a007800ad0007004b
:102910001808900000004600100c98008c855500a7
:10292000d80890000100e00003003c0088109000ef
:102930000138a30006003200e800900080804000cb
:10294000e2c2b300824878000000e800100c980052
:1029500058089000808f55000100340080057800f1
:10296000e800900018089000008040008c004500ae
:102970000b01780093000700180890000b0040003e
:10298000100c9800580890008b0550002b0c9800f4
:102990005400370018089000e80090008080400044
:1029a0009a4878000000e800100c9800d8089000c1
:1029b0000100e00003003c00881090000138a300f3
:1029c00006003200e800900080804000e2c2b300c0
:1029d000824878000000e800100c98005808900029
:1029e0000000e000100034008b05e900808f5500e6
:1029f0000100340080057800e8009000180890007d
:102a0000008040008a00e8000b0178006d0007009c
:102a1000180890000b004000100c98005808900017
:102a20008b0550002b0c9800e800900018089000cf
:102a300000804000095878000007e8000c00e00022
:102a400004003500b1c2b300014878008e0478005c
:102a500004003700d1c2b300014878008e0478002a
:102a60000c06ea007d8557008006eb000900370060
:102a7000a20020008c00780072805700310007000f
:102a80007fb097008fb89700016d7800000678003e
:102a90008d06e8000c00e000f5ff3c000d00e000b2
:102aa00009003a008e04780000c3b300805c78000f
:102ab000050037008d06e900fc8057000d804000be
:102ac00001c3b30090dc40000d00e000f9ff3c00c2
:102ad000e8009000180890000080400080845400b6
:102ae000390c98000810900074006000f00f50003e
:102af0000e003a0098089000780090000080400096
:102b0000a808900001004000b808900001004000b3
:102b1000c808900001004000f8089000810f5000a4
:102b200002003d0000805000000c98004f07780024
:102b30004f06be004f05be004f04be000f01b1009e
:102b400000000600800278000103780011000900ef
:102b50000203d80080017800830a78008299b900c6
:102b600082005300910298000500780000000600e2
:102b7000881f78008a9fbe008c9fbe0000047800ea
:102b80000205be000406be000401be000a00be002d
:102b900084f70700008cbe000c01be00b8020700dd
:102ba0000005550081855d002a0498003b049800cb
:102bb000080078004f06be004f05be004f047800a5
:102bc000000006008001780002003700b15978004b
:102bd0000201e9000200e000fcff3a0000000600ec
:102be000020037000304e000060032000001780014
:102bf00002007800b041780081cf5100f9ff3a001f
:102c0000010037000001eb00020078000000060020
:102c1000889fbe0000047800e68440001900d000c0
:102c20004500de00f27f2000820f500010003a00c5
:102c3000000ceb00990478006f81640020002000f4
:102c40001b003a00210190000200e00018003a0049
:102c5000110190000200e00015003a001000200071
:102c60001100e000120032002000200010003700a8
:102c70000000e00004003a000100780003020700b1
:102c80000000e00008003c00f2002800190161008b
:102c900001fe2300810c710021c02f00010c4000b7
:102ca0000080eb0002003700000ceb000000eb009e
:102cb0004f04be0000000600fc874700889fbe004e
:102cc0008a9fbe008c9fbe008e1f78000006780091
:102cd00080c5b30080cf50000a003200774040002a
:102ce00080cf50000a0032006940400080cf500081
:102cf0000b0032003013210080bf9f00ae00200087
:102d00000a0037002212210082bf9f000600370010
:102d10003313210083bf9f008e0020000300370083
:102d20003413210084bf9f000e0120003c02be002e
:102d30002c03be000605be000404be0040c6b3005e
:102d400080cf5000030032006540400080cf50002b
:102d50000b003a00e00f5200e08f5a00e00f5b00da
:102d6000e08f5b0006003d006000b8006011b80015
:102d700004045000858458000605590087855900d1
:102d8000e80f57000400320040002000f00f570009
:102d90003a003a000100370030002000e00f5400f4
:102da000e08f5c00e00f5d00e08f5d0004003a0002
:102db000dc0890008d0120000100e00007003200d7
:102dc0008e00e900888060008fba97008180420001
:102dd00091407800f1ef9f007d0120008000780095
:102de0008100e900050033008b05d1000a85d3007e
:102df0008984d3000884d300f9ff3700089ebe0001
:102e00000a96be00130037008d06e9008e00e90027
:102e1000848060000fb99700810041001141780063
:102e200083fd2f008d81410082f7790080017800b9
:102e30008301e900050033008783d1000683d300b6
:102e40008582d3000482d300f9ff3700049ebe00c0
:102e50000696be003c02be002c03be00e00f5200ee
:102e6000e08f5a00e00f5b00e08f5b0091003400c0
:102e70000d00e000e4ff3c008e0037002c60900065
:102e800081c6b300814f50000b00320006003c00a9
:102e90000004e00008003200e6c05000814f5000fe
:102ea00052003a0004003700c1c6b300814f500001
:102eb0004e003a00230037000800e00004003a000a
:102ec0005c0890008d0120000000e0000700320047
:102ed000110009000e84d8000fba970001004200cb
:102ee00010407800f0ef9f007d01200011000900e4
:102ef0000e84d8000b003700110009000e04d80022
:102f00008d06e9008e81b900020454008fb8970045
:102f1000088440009841780082fd2f000d01410097
:102f200083777900000478000800e0000200320096
:102f30000d00e000f0ff3c00cfc4de00614db900a1
:102f400027003700e00f5400e08f5c0004003a00d7
:102f50005c0890008d0120000000e00008003200b5
:102f60006171b9000800be00c20107000fba9700e6
:102f70008000420091407800f1ef9f007d01200029
:102f80006171b9000800be002af807000c00370084
:102f90006171b9000800be0082f607008d06e900e5
:102fa00080f1b900020454008fba970008844200ef
:102fb0009841780082fd2f000d0141008377790050
:102fc0000004be00e00f5000e08f58000200320005
:102fd0000d00e000eeff3c004fcdde008a057800da
:102fe000089ebe000a96be0032003700e00f540073
:102ff000e08f5c00e00f5d00e08f5d0004003a00b0
:103000005c0890008d0120000000e0000a00320002
:103010006172b900612bb9000800be000a01be0050
:103020003d0207000fba97008000420091407800ef
:10303000f1ef9f007d0120006172b900612bb900a2
:103040000800be000a01be002c0207000e00370077
:103050006172b900612bb9000800be000a01be0010
:10306000310207008d06e90080f2b9000404540023
:103070008fba9700088442009842780084fd2f00a0
:103080000d02420085777a00009ebe000296be00c7
:103090003c04be002c05be00e00f5400e08f5c0035
:1030a000e00f5d00e08f5d00020034000d00e000e5
:1030b000e7ff3c00e80f570010003a000c109000aa
:1030c0000038a3000d003200f78f560006003e00c6
:1030d00080fd2f000d004000ef40780000c3b300da
:1030e00080cf50000500320002c3b30071fd2f00f5
:1030f0008d8040008d06e90082f778007881160007
:10310000120e98006c00900083fd2f008f8141000b
:103110008d804100abfe07001c089000dc08900089
:10312000810f500006003d0000805000000e980006
:103130000c1090000040a100001698000f0037000e
:103140000100e0000d003d008c109000f480600054
:10315000f08f500009003a007c099000fc009000bc
:10316000810051000c0990008280500000805000c6
:103170004240a90001003400000e98004f0778007b
:103180004f06be004f05be004f04be00cf01b10088
:10319000000006000400fa00889fbe008a9fbe005f
:1031a0008c1f78000004780001067800f80d90006c
:1031b00078009000808555000808900080855500b3
:1031c00018089000808555002808900080855500db
:1031d000380890008085550048089000808555008b
:1031e0000002220090bf9f0000032300a0bf9f00a9
:1031f000081090000028a30015003a000b00e00022
:10320000130034000b0578008a047800e20f5500a3
:103210000100360029002000c80190000901780053
:10322000ee80570058009000030001005004980001
:103230000000e0008c0032006808900009004000a7
:10324000600c9800090555004240a900eeff3c00c3
:10325000780190000200e0000c003400c8019000ea
:103260008c00780058009000030001005004980082
:103270008080eb000000e0007c003200e808900055
:103280007800900000804000600c9800880c90004e
:103290000900e0001100340009057800e28f5400b5
:1032a000010036002a002000c80190000a017800c1
:1032b000ec80570058009000030001005004980073
:1032c0000000e00068003200680890000a0040003a
:1032d000600c98008a845400edff370018099000b4
:1032e0000200e0000c003400c8019000e8009000eb
:1032f0005800900003000100500498008080eb000b
:103300000000e00059003200e80890001808900022
:1033100000804000600c9800a80c90000900e000bc
:103320001100340009057800e28f540001003600d6
:103330002a002000c80190000a017800ec805700a4
:103340005800900003000100500498000000e000c5
:1033500045003200680890000a004000600c9800a8
:103360008a845400edff3700380990000200e00025
:103370000e003400e80090001808900080804000a3
:10338000c80190005800900003000100500498000c
:103390008080eb000000e00034003200e80890007c
:1033a0003808900000804000600c9800c80c900025
:1033b0000900e0001100340009057800e28f540094
:1033c000010036002a002000c80190000a017800a0
:1033d000ec80570058009000030001005004980052
:1033e0000000e00020003200680890000a00400061
:1033f000600c98008a845400edff3700081090009c
:103400008000eb000028a300180032000b00e00051
:10341000160034008b04780009057800e28f540010
:10342000010036002a002000c80190000a0178003f
:10343000ee805700580090000300010050049800ef
:103440000000e00008003200680890000a00400018
:10345000600c98008a8454004240a900eeff3c00b2
:103460008000eb00010037008080eb000100780055
:103470004f0678004f05be004f04be000080fa00e2
:10348000000006000108780000000600e600400089
:103490001101780005002800850261006f016100bc
:1034a000820878000200320012002000110037006c
:1034b000a0019000120020000300e0000d003a007f
:1034c000900190000300e0000a003a001000e000c4
:1034d00008003a0036003700640340009608780080
:1034e00080017800530b7800900978000408780078
:1034f00070015100110278000400e000f6ff320074
:103500001300370064024000140378004f33de00dc
:10351000838141008308730080017800d303780021
:10352000cf3bde001403780006034300068a7300d5
:103530001302780004024200100378004f33de00cb
:103540008609720090017800038841000201e900b9
:1035500091017800ef8f5100eaff3600100037002c
:1035600080017800530378004f33dd001002d10052
:10357000040873006402400094037800cf3bdd0030
:103580001303d10086897300110378004f33dd00e7
:103590009401d100030a73009108d1000201e800f0
:1035a00091017800ff8f5100edff3e00ef88610030
:1035b0009188720002007800000006008f1fd10081
:1035c000b40107008f87e9000000e000000006005a
:1035d000809feb00af0107008f87e9000000e0004b
:1035e0000000060081037800bcf507000001be0062
:1035f0006000b8000478a30013003a006220e100e4
:1036000015003e000d0039008301d1000281d30076
:103610008180d3008301d1000281d3008180d30057
:103620008301d1000281d3008180d3000538b0002e
:10363000c42add00f300b2008381720007f0a70006
:1036400003f0a00000000600f3ff2700f2ff2f00a8
:103650006110b900fbff370003ff2700f7ff3700b9
:103660004f89de0082017800c501370007f0a20013
:103670000b0137006ff607000400be0000000600d3
:10368000020ab900001bb9000200b8008100420024
:103690008100430000000600889fbe008a9fbe0094
:1036a00030044200b0844a0030054b0090854b0046
:1036b0006000b1000898be000a90be000440e1001e
:1036c00005c8e10006d0e10007d8e10002003100a2
:1036d000680040001008e8004f05be004f04be001f
:1036e00000000600889fbe008a9fbe003004be0016
:1036f0002005be000418540005985c0006185d0003
:1037000007985d00110020000440e10005c8e100b9
:1037100006d0e10007d8e100010039008000eb008d
:10372000108810004f05be004f04be0000000600c8
:103730001200fa00889fbe008a9fbe008c9fbe00c8
:10374000e0b79f00f1b79f0082bf9f0093bf9f002b
:103750000605be000404be000000eb00d0b79f00c9
:10376000c0b79f00b0b79f00a0b79f0090b79f0061
:103770000006eb005fb19700cfb0970082014100d7
:103780003fb097000200e00004003d003700070052
:103790007e805700c0ff070003003700330007009a
:1037a0007e805700cfff0700dfb697000d00e000d6
:1037b0000c0035006fb29700ffb297000fbb970067
:1037c0009fbb970010002000010020006011b8008e
:1037d000000272008182720002037300838373000f
:1037e0001b0007000c06e80001042000810f5600b2
:1037f000e0ff3a000d00e00004003d000802be00ba
:103800000a03be007e805700a3ff07005fa8970051
:103810000000e00005003a001fb29700afb2970029
:103820003fb39700cfb39700090007006fb0970030
:10383000ffb097000fb997009fb997004f06be00e1
:103840004f05be004f04be000080fa0000000600d5
:103850000100070000000600a4b79f00b5b79f0055
:10386000c6b79f00d7b79f00000006004f09de00d3
:1038700082817100b3b79f004f01de00818040005c
:1038800082807000a1b79f008fb097004f09de00c3
:10389000000040000200700090b79f007fa89700d2
:1038a0004f01de00818040008280700081b79f0060
:1038b0000d0007004f3ade000000400004007000d9
:1038c000f0af9f00080007000402420085824a0012
:1038d00006034b0087834b00dfff07000802be0092
:1038e0000a03be00000006002fb29700bfb2970087
:1038f0004fb39700dfb3970000000600881f7800e1
:1039000018002000881f780089ff07008f87e900d2
:103910004f04780000000600801feb0084ff0700c2
:103920008f87e90000000600889fbe008a9fbe00c6
:10393000e00f5000e08f5800e00f5900e08f590071
:103940000c003d006044b8006055b8000000540011
:1039500081805c0002015d0083815d001800200011
:103960001500070008003d00180007000004eb00e8
:10397000050037000004eb000f00070002003d00c7
:103980001200070018002000dcff07000800e0001c
:10399000060032006022b8006033b8000000520018
:1039a00081805a0002015b0083815b004f05be00ed
:1039b0004f04be0000000600e00f5200e08f5a00e6
:1039c000e00f5b00e08f5b00000006006044b80081
:1039d0006055b8000402540085825c0006035d0057
:1039e00087835d0000000600889fbe008a9fbe009e
:1039f0008c1f7800e00f5000e08f5800e00f590056
:103a0000e08f59000d003d006044b8006055b800db
:103a10000000540081805c0002015d0083815d0034
:103a20001c0020000820e10009a8e1000ab0e10024
:103a30000bb8e1000d003d00080037000006eb0068
:103a4000e00f5200e08f5a00e00f5b00e08f5b0058
:103a500006003d006044b8006055b8000402540000
:103a600085825c0006035d0087835d00aaff070076
:103a70000c00e000060032006022b8006033b8009d
:103a80000000520081805a0002015b0083815b00cc
:103a90004f0678004f05be004f04be000000060030
:103aa0002800fa00889fbe008a9fbe008c9fbe003f
:103ab00007067800878669000c003b000304780045
:103ac0008704780008f0a10009f0a100840f5000dd
:103ad000858f5800860f5900890f5c000300330062
:103ae0000cf0a20001003a000cf0a100e8f307007e
:103af0006400e1005f003200780147006408e100e3
:103b0000610032006c014700748557003200be002e
:103b10001201be003a04be001a05be001e0390004a
:103b2000be0a90008503530006003d000004fd001e
:103b30008104fd000205fd008305fd008703ea0006
:103b4000050378000df8a30004003200600414009f
:103b5000e0841c0060051d00e0851d006022b800a7
:103b60007d0320000d38e1008006eb000b003900da
:103b70004433dd00f300b2008301730039003700e5
:103b8000848272000d027800e10664008b85d1000a
:103b90000a85d3008984d3000884d3008703e90011
:103ba000f7ff3b0008004000898048000a014900f7
:103bb0008b81490004003b0060001000e080180089
:103bc00060011900e08119000358a30009003200c8
:103bd0008d82720084827200610260008301d100d4
:103be0000281d3008180d3000080d3000603e80067
:103bf0001b0037000348a30017003a000600e0004e
:103c0000170034000603e9000d00a300000048007f
:103c10008180480002014900838149000348a300d4
:103c20000f003a000600e000090034000603e90036
:103c30000000400081804800020149008381490062
:103c400001003a000003eb000348a300f5ff320037
:103c50006022b80002003700848272006182660030
:103c60005ff3070003f0a1000cf0a70003f0a00031
:103c70009bf33700640147006408e10002003a004a
:103c80000df8a30093f33a003200be001201be000b
:103c900093f33700889fbe008a9fbe008c9fbe00b2
:103ca0000404be000605be00809fbe00829fbe00c9
:103cb00021000700040678000800be000a01be00cb
:103cc0001d000700840678004f03be004f02be00af
:103cd0008d4f76007fb0970013003300f0ff2f0068
:103ce0008b8f6b0006003b000d0666000c00a700e2
:103cf0000a00370007f0a600100020000a00370075
:103d0000880f5200898f5a008a0f5b008b8f5b00ef
:103d1000030039001000200001003e0000002000d8
:103d200007f0a7000000ea004f06be004f05be00e6
:103d30004f04be000000060005ff27000582610059
:103d4000070032000428e1000100320024000500d1
:103d50000600070001003a004400050004080500c1
:103d600002000700f9ff3a00140005006f826100ad
:103d70008102700085027100850272000000060059
:103d8000881f7800030478000300e00007003d006e
:103d900060001000e080180060011900e081190047
:103da00002003b0001f02d00030037000400070073
:103db00008f0a70003f0a0004f0478000000060000
:103dc000889fbe00008270000402710004827100ae
:103dd0002400320036432000c50020008383cf003a
:103de0000a0039000541b1008283cf000700390085
:103df0000541b1008183cf00040039000541b100c5
:103e00008083cf00010039000541b10085c3530014
:103e10006022b800120032000a003b008482720067
:103e2000610260008301d1000281d3008180d30050
:103e30000080d3000603e8008743e800f7ff3a005c
:103e4000070037000000400081804800020149005f
:103e5000838149000603e9008743e900f9ff3a003e
:0c3e6000dff207004f04be000000060067
:020000040000fa
:103e6c0025640000002500006c64000000250000a3
:103e7c002e320000660000006164000063620000e6
:103e8c007566000066650000723a0000003b000099
:103e9c0000540000687200006f740000746c000025
:103eac00653a000020000000253b000020000000c7
:103ebc005370000065650000643a000000200000ab
:103ecc00727000006d3b0000200000004962000091
:103edc003a000000204100003b2000000049000097
:103eec00633a000000410000726d000020490000a0
:103efc003a000000206300006c690000636b000056
:103f0c00730a000000480000504c00006f63000072
:103f1c006b6f00007574000020520000656c00008f
:103f2c006561000073650000640a00000000000079
:020000040000fa
:103f3c000400fa006000b800008fbe0004003700d7
:103f4c0012002000030020001e0f41005e97490064
:103f5c00f0ff2c00710020001e01be00800f5100ec
:103f6c00818f5900f6ff34000080fa000000060033
:103f7c000400fa006000b800008fbe000400370097
:103f8c0012002000030020001e0f41005e97490024
:103f9c0070092000010020001e01be00800f51009e
:103fac00818f5900f6ff34000080fa0000000600f3
:103fbc000200fa00907280004600de006140600052
:103fcc000080fb00c200dd00907280004200de0029
:103fdc00614060000080fb00000040008100700028
:103fec00907280004300de00614060000080fb00a6
:103ffc00008f7000a08180000000e00093003a0068
:10400c00d2818000e3818000400620000100200066
:10401c00800f5100818f5900720034001e00e9009e
:10402c0080004000801721000080400010007800c4
:10403c00700060004480de00004078006140600049
:10404c000080fb006100600022728000e1ff2f0005
:10405c008100610001007000207288001e00e900e0
:10406c008000400080172100008040001000780084
:10407c00640060004280de00004078006140600017
:10408c000080fb00610060004200dd0022728000b5
:10409c00b1ff2f00810061000100700020728800c8
:1040ac001e00e900800040008017210000804000c5
:1040bc0010007800004078006140600061406000b2
:1040cc00614060000080fb00610060004600dd0084
:1040dc0022728000f1fb2f00810061000100700052
:1040ec00207288001e00e90080004000801721002b
:1040fc0000804000900078000002200000806000ea
:10410c004580de0000f0a7000000ea000000e90096
:10411c004f00de00004078000080fb006100600072
:10412c004900dd0012618000f1df2f008100610089
:10413c0001007000106188001e00e9008000400042
:10414c00801721000080400010007800680060009b
:10415c004380de0000f0a7000000ea000000e90048
:10416c004f00de00004078000080fb006100600022
:10417c004900dd0012628000f1df2f008100610038
:10418c0001007000106288001e00e90080004000f1
:10419c008017210000804000100078006200600051
:1041ac000080d10000f0a7000000ea000000e90048
:1041bc004f00de00004078000080fb0061006000d2
:1041cc004900dd0012648000f1df2f0081006100e6
:1041dc00010070001064880010002000a08188008d
:1041ec00ab00370044cea900207280004600de00f0
:1041fc00614060000080fb00610060004200dd0057
:10420c0022728000b1ff2f0081006100010070005c
:10421c0020728800207280004200de006140600045
:10422c000080fb006100600022728000e1ff2f0023
:10423c00810061000100700020728800232ca8000e
:10424c00432ca800832ca80091003700d281800059
:10425c00e38180002003200001002000800f51002a
:10426c00818f5900700034001e00e900800040006e
:10427c008017210000804000100078007000600062
:10428c004480de0000407800614060000080fb004c
:10429c006100600022728000e1ff2f00810061004c
:1042ac0001007000207288001e00e90080004000b0
:1042bc00801721000080400010007800640060002e
:1042cc004280de0000407800614060000080fb000e
:1042dc00610060004200dd0022728000b1ff2f00ff
:1042ec008100610001007000207288001e00e9004e
:1042fc0080004000801721000080400010007800f2
:10430c0000407800614060006140600061406000e6
:10431c000080fb00610060004600dd00227280001e
:10432c00f1fb2f00810061000100700020728800f9
:10433c001e00e90080004000801721000080400032
:10434c009000780000022000008060004580de00b4
:10435c0000f0a7000000ea000000e9004f00de00ba
:10436c00004078000080fb00610060004900dd0027
:10437c0012618000f1df2f008100610001007000ec
:10438c00106188001e00e9008000400080172100a9
:10439c000080400010007800680060004380de0060
:1043ac0000f0a7000000ea000000e9004f00de006a
:1043bc00004078000080fb00610060004900dd00d7
:1043cc0012628000f1df2f0081006100010070009b
:1043dc00106288001e00e900800040008017210058
:1043ec000080400010007800620060000080d10066
:1043fc0000f0a7000000ea000000e9004f00de001a
:10440c00004078000080fb00610060004900dd0086
:10441c0012648000f1df2f00810061000100700048
:10442c00106488001a0037003430ef0044cea90025
:10443c00207280004600de00614060000080fb00be
:10444c00610060004200dd0022728000b1ff2f008d
:10445c0081006100010070002072880020728000d1
:10446c004200de00614060000080fb0061006000e3
:10447c0022728000e1ff2f008100610001007000ba
:10448c0020728800232ca800432ca800832ca800a1
:10449c000080fa00000006000000fa00344ea9006b
:1044ac00a3fe0700344ea800a1fe0700344ea9005d
:1044bc009ffe0700344ea8000080fa0000000600a2
:1044cc001000fa00009fbe000297be00440798003f
:1044dc005507980066079800770798006022b80087
:1044ec0006002000e70324003e00be002e01be00a3
:1044fc0024f2070080f1070000007800306188008a
:10450c006022b80006002000e70324004e00900053
:10451c00de0090006e019000fe01900019f2070081
:10452c0075f1070000007800306288006022b80046
:10453c0006002000e70324001eb89700aeb89700d1
:10454c003eb99700ceb997000ef207006af107004a
:10455c0000007800306488000080fa00000006003b
:10456c000800fa00009fbe000297be006022b8004f
:10457c0086c32900c71924003e00be002e01be00d0
:10458c0000f207006022b80006802800370d2400d6
:10459c0065f007006022b800060020009705240093
:1045ac0061f0070054f107000000780050608800ab
:1045bc000080fa00000006000000fa00c3e8a80022
:1045cc000080fa00000006000000fa00c3e8a90011
:1045dc000080fa00000006000200fa00000f7800cc
:1045ec001e0078000000e0000300320000002800ec
:1045fc000060880001003700002cef000080fa00fa
:10460c00000006000000fa002430ef00100020002b
:10461c00908188003430ef001830ef001030ef003c
:10462c0040aea90044aea80011eea90015eea900f9
:10463c00314ea800312ea800304ea9000080fa009f
:10464c00000006000000fa000080fa0000000600de
:10465c000000fa0050cea800504ea800506ea800e2
:10466c007135800000f82f0080806000600620000b
:10467c00010070007035880071358000f00f280043
:10468c0080806000002026000100700070358800da
:10469c00a135800000f82f008080600030062000db
:1046ac0001007000a0358800000a800000a0a10065
:1046bc0000b0a10000c0a000000a8800400a8000e1
:1046cc0000a0a10000b0a10000c0a000400a88001a
:1046dc00800b800000a0a10000b0a10000c0a000d1
:1046ec00800b8800110a800000fe2f000080600003
:1046fc00b000b300100a8800510a800000fe2f00a1
:10470c0000806000b000b300500a8800910b80005c
:10471c0000fe2f0000806000b000b300900b8800fa
:10472c00000a80000050a1000060a100000a88006f
:10473c00400a80000050a1000060a100400a8800df
:10474c00800b80000050a1000060a100800b88004d
:10475c00000a80000000a0000010a1000020a100b1
:10476c00000a8800400a80000000a0000010a10090
:10477c000020a100400a8800800b80000000a000ef
:10478c000010a1000020a100800b880000428000d6
:10479c000040a0000050a1000060a0000042880072
:1047ac00104280000040a0000050a1000060a0005a
:1047bc0010428800504280000080a0000090a100b0
:1047cc0000a0a000504288000028a90000a8a90061
:1047dc0002c8a9002028a80020a8a80022c8a80068
:1047ec000080fa00000006000200fa000000eb0056
:1047fc00000f7800070037001e007800c200dd00b3
:10480c00a0042100008140006000b8000089be00b7
:10481c001e0fe8001e007800ff0f5000f6ff34005a
:10482c001e30ef002030ef001a30ef0005e1a90038
:10483c000421a90004c1a900200880000040a000a8
:10484c000050a000200888000021ef00b0712b0060
:10485c00100888000042800000c0a10000d0a00019
:10486c0000e0a000004288000068a9002068a800b1
:10487c0005e1a8000080fa00000006000000fa0024
:10488c00c1e8a9004042800000c0a00000d0a000f8
:10489c0000e0a100404288002268a8000268a9003c
:1048ac000080fa00000006000000fa00f00320006f
:1048bc00303a8800203a80000060a1000070a1000e
:1048cc00203a8800213a800000fe2f000080600012
:1048dc00203a88001200200080072000a109200047
:1048ec00337420008049780081497800824978002f
:1048fc00103a8000000178000200a0006004200043
:10490c0071052000237420008049780081497800cb
:10491c008249780000000000113a80000000270056
:10492c008080600000002100808f5000faff3a0068
:10493c0000000000113a800000022000008060009e
:10494c000000e000fbff32000080fa0000000600cf
:10495c000000fa0040202000006488000064800001
:10496c0000628800006280000061880040aea900ef
:10497c008a2cef00506480005062880050628000e6
:10498c0050618800900120006064880060648000a1
:10499c0060628800606280006061880000002c000a
:1049ac00106488001064800010628800106280001f
:1049bc001061880030002000206488002064800092
:1049cc00206288002062800020618800022cef00a9
:1049dc0080bb2000406488004064800040628800f6
:1049ec00406280004061880080bb2000906188009c
:1049fc00a061800000c0a10000d0a10000e0a100d7
:104a0c0000f0a100a0618800a161800000fc2f00d3
:104a1c00008060000020a000a0618800214ca8004c
:104a2c000000000001618000000022000080600096
:104a3c000000e000fbff3a000080fa0000000600d6
:104a4c000000fa00802cef000064800000628800f7
:104a5c0000628000006188000077210020608800df
:104a6c00902cef00806480004064880040648000db
:104a7c008062880080628000406288004062800012
:104a8c008061880080618000406188009001200076
:104a9c00506488005064800050628800506280002e
:104aac00506188008c2cef0060648000606288008c
:104abc00606280006061880040aea90023eca80011
:104acc0023cca90023aca900238ca90043eca8009b
:104adc0043cca90043aca900438ca90083eca800eb
:104aec0083cca90083aca900838ca9001061800041
:104afc0000a0a00000b0a00010618800106280002f
:104b0c0000a0a00000b0a00010628800106480001b
:104b1c0000a0a00000b0a00010648800400ea90006
:104b2c00404ea90040cea900440ea900444ea90055
:104b3c0044cea90000772100706488007064800066
:104b4c0070628800706280007061880025eca9009a
:104b5c0021618000f03f280080806000000022006e
:104b6c0001007000206188002161800070f02f002e
:104b7c0080806000800420000100700020618800ab
:104b8c00252ca800244ca800250ca800206180002e
:104b9c000000a0000010a1002061880010618000be
:104bac000040a1000050a10010618800106180003d
:104bbc000020a1000030a1001061880045eca90084
:104bcc0021628000f03f28008080600000002200fd
:104bdc0001007000206288002162800070f02f00bc
:104bec00808060008004200001007000206288003a
:104bfc00452ca800444ca800450ca800206280005d
:104c0c000000a0000010a10020628800106280004b
:104c1c000040a1000050a1001062880010628000ca
:104c2c000020a1000030a1001062880085eca900d2
:104c3c0021648000f03f280080806000000022008a
:104c4c0001007000206488002164800070f02f0047
:104c5c0080806000800420000100700020648800c7
:104c6c00852ca800844ca800850ca800206480002a
:104c7c000000a0000010a1002064880010648000d7
:104c8c000040a1000050a100106488001064800056
:104c9c000020a1000030a10010648800022cef005d
:104cac0022eca90042eca90082eca90022cca900bc
:104cbc0042cca90082cca900232ca800432ca8002c
:104ccc00832ca800230ca800430ca800830ca8007c
:104cdc0080bb20009061880080bb2000906288001f
:104cec0080bb200090638800a061800000c0a10000
:104cfc0000d0a10000e0a10000f0a100a06188009c
:104d0c00a062800000c0a10000d0a10000e0a100c2
:104d1c0000f0a100a0628800a063800000c0a10088
:104d2c0000d0a10000e0a10000f0a100a063880069
:104d3c00a161800000fc2f00008060000000a0003a
:104d4c00a0618800a162800000fc2f000080600040
:104d5c000000a000a0628800a163800000fc2f006e
:104d6c00008060000000a000a0638800214ca80017
:104d7c000000000001618000000022000080600043
:104d8c000000e000fbff3a00414ca80000000000ce
:104d9c000162800000002200008060000000e00042
:104dac00fbff3a00614ca80000000000016380008a
:104dbc0000002200008060000000e000fbff3a00d1
:104dcc000080fa00000006000000fa00602cef00e2
:104ddc00007721002060880063eca90063cca80058
:104dec001063800000a0a00000b0a0001063880039
:104dfc00702cef000080fa00000006000000fa00a2
:104e0c0085caa8008dcaa80085aaa9008daaa900e8
:104e1c00205480000060a0000070a0002054880086
:104e2c00605480000060a0000070a00060548800f6
:104e3c00848aa9008c8aa900205480000000a1005b
:104e4c000010a10020548800605480000000a000d5
:104e5c000010a10060548800828aa900834aa9002e
:104e6c0082eaa90082caa90082aaa9001054800073
:104e7c000000a0000010a0000020a0000030a10045
:104e8c0010548800e134800000fc2f00008060008a
:104e9c008001b300e0348800d1348000f00f2c0086
:104eac00808060000090210001007000d0348800e8
:104ebc00852aa9008d2aa900404280000080a1000b
:104ecc000090a00000a0a100404288002248a80049
:104edc0085eaa8008deaa8000080fa000000060010
:104eec000000fa00604ea800606ea80000022000ce
:104efc00201088000a22ef000020210030108800ca
:104f0c000022ef000222ef0007e2a8000080fa0066
:104f1c00000006000000fa001e2ea8001e4ea8007d
:104f2c001f4ea8001f6ea800114ea800100ea8005e
:104f3c00102ea800104ea8002143a90023e3a800be
:104f4c0020c0b30024e3b70025e3a90028e3a9009f
:104f5c0029e3a9004119800000fe2f0000806000a9
:104f6c00a000b3004019880041198000f00f2e00fa
:104f7c000080600040198800301980000010a100ea
:104f8c000020a10030198800301980000090a10089
:104f9c0000a0a100301988002603a9002703a9004e
:104fac00101980000080a1000090a000101988004a
:104fbc002063a8002343a9002203a9002043a800d2
:104fcc002083a800001980000050a0000060a10000
:104fdc000070a100001988001119800030f82f0012
:104fec0000806000101988002223a900001980009d
:104ffc000080a1000090a1000019880021a8a80041
:10500c00304280000040a0000050a1000060a000d1
:10501c003042880001a8a90021e3a8000080fa0012
:10502c00000006000000fa000602a80000000000c4
:10503c0030108000610060000000e000fcff3a00ce
:10504c000080fa00000006000000fa000622a8000a
:10505c000000000030108000620060000000e000e2
:10506c00fcff3a000080fa00000006000000fa0085
:10507c000642a800000000003010800064006000b0
:10508c000000e000fcff3a000080fa00000006007f
:10509c000200fa00004f78001e80fb001010880000
:1050ac000000000040108000610060000000e00083
:1050bc00fcff3a000080fa00000006000000fa0035
:1050cc0000000000411080000000240000806000ff
:1050dc000000e000fbff3a000080fa000000060030
:1050ec000000fa00401080000080ea004f00de0053
:1050fc000080fa00000006000000fa0006a2a800da
:10510c000682a800000000003010800070006000d3
:10511c000000e000fcff3a0006a2a9000080fa00a3
:10512c00000006000000fa0006a2a9000682a800f2
:10513c000000000030108000700060000000e000f3
:10514c00fcff3a000080fa00000006000000fa00a4
:10515c000662a800000000004010800062006000a1
:10516c000000e000fcff32000010800000407800de
:10517c000080fa00000006000400fa0020479800a6
:10518c00ceff0700a7ff070040c4b300c0ff070015
:10519c00caff0700d2ff0700000f78002e409000d6
:1051ac00bbff0700c5ff0700cdff0700000f78000d
:1051bc00aeff07001e0078000080fa000000060019
:1051cc000400fa0010079800bcff070095ff0700c9
:1051dc0040c4b300aeff0700b8ff0700c0ff0700d4
:1051ec00000f7800090037001e0090001040780076
:1051fc009e0090008100e80011079800a4ff0700b2
:10520c00aeff0700b6ff0700000f78001e009000ed
:10521c00104078000004e000f3ff3a0093ff070011
:10522c001e0078000080fa00000006000800fa005a
:10523c0030079800be009000811f780060f32900b1
:10524c00801f78000e0078001df00700e4875700df
:10525c000e007800daff07000080fa00000006005c
:10526c001000fa0060079800710798006e0090001b
:10527c00fe009000809fbe0090f32900801f7800f4
:10528c000e0078000ef00700e68757000e0078003d
:10529c00cbff07000080fa00000006001800fa009f
:1052ac00200f9800310f98002e089000be08900037
:1052bc00809fbe00d0f32900801f78000e0078007c
:1052cc00d5f10700e68757000e007800bcff0700f9
:1052dc000080fa00000006003600f800809fbe0037
:1052ec00829fbe00849fbe00869fbe00881f7800f0
:1052fc002200f8002400f8002600f8000a00fa004a
:10530c00907280004600de00614060000080fb006f
:10531c00c200dd00907280004200de00614060003f
:10532c000080fb0000004000810070009072800043
:10533c004300de00614060000080fb00008f7000c5
:10534c0015eea8000000eb00100798000000eb0021
:10535c00200798000000eb00300798000000eb00dd
:10536c004007980000188000100798001018800063
:10537c002007980020188000300798003018800013
:10538c0040079800be009000f01f2000808f500056
:10539c0007003c003e0090000120200000805000df
:1053ac00cf80de0020808800318088000500370027
:1053bc003e0090000020b100cf80de0020808800ed
:1053cc0031808800ce009000f01f2000808f5000ac
:1053dc0007003c004e00900001202000008050008f
:1053ec00cf80de00408088005180880005003700a7
:1053fc004e0090000020b100cf80de00408088007d
:10540c00518088001e007800e10f50000600320029
:10541c001e007800e20f5000030032001e007800de
:10542c00e50f500005003a0020808000318080009c
:10543c0060808800718088000d0037001e007800a5
:10544c00e30f5000060032001e007800e40f5000fd
:10545c00030032001e007800e60f500004003a00f2
:10546c0040808000518080006080880071808800be
:10547c00c0818000f00f500005003a003830ef007a
:10548c001e009000cf80de00d0818800e181880072
:10549c00c08180000000e800c081880090818000fd
:1054ac00e20f50000a0032001000200090818800aa
:1054bc00d2818000e38180003006200001002000b2
:1054cc00800f5100818f590001003c003230ef00f9
:1054dc00d0818000e1818000420620008289b900e1
:1054ec00e002b9008401780003014100430620006a
:1054fc000300b80001014100820078004609dd007c
:10550c004a00de0000007100ca88de00c7ed07000b
:10551c00308288004182880034828000458280007d
:10552c00108280002182800018c0b3000001be00f0
:10553c000400be006eed07000000e00001003c001e
:10554c000044eb000804e0000800320010828000e8
:10555c0021828000a2702d0033ba230015ec0700c5
:10556c001082880021828800190037003482800064
:10557c0045828000108280002182800018c0b30018
:10558c000001be000400be0057ed07000000e00063
:10559c00010035000044eb000804e0000800320074
:1055ac001082800021828000a2702d0033c2230063
:1055bc00ffeb07001082880021828800040037006e
:1055cc003082800041828000108288002182880015
:1055dc00108280002182800018c0b30002002000dd
:1055ec00432c240042ed07000000e00001003c00c9
:1055fc000044eb000804e00005003200000020002d
:10560c00412c240010828800218288000d00370074
:10561c00108280002182800018c0b3006011b80095
:10562c0031ed07000000e000010035000044eb0004
:10563c000804e000030032006000b800108288000b
:10564c00218288001082800021828000021c2e00a2
:10565c0043ce240040ee070002002400c36924005e
:10566c008bec070002002000832c240088ec070040
:10567c004ded070000007800306488003064800035
:10568c003062880030628000306188008080800049
:10569c000000e00006003200862cef003064800031
:1056ac003062880030628000306188001200370060
:1056bc001082800021828000021c2e0043ce240028
:1056cc0025ee070002002400c369240070ec0700db
:1056dc0002002000832c24006dec070032ed070043
:1056ec0000007800306488003064800030628800ec
:1056fc00306280003061880090818000e20f5000a1
:10570c0001003a002afa0700506080008000eb008c
:10571c006011b80004772100050020006033b80048
:10572c000000520081805a0002015b0083815b0003
:10573c008301d1000281d3008180d3000080d3008b
:10574c0080007800506080000080400090618800ec
:10575c0015eea90001a8a9000080fa002600f900a6
:10576c002400f9002200f9004f0478004f03be001a
:10577c004f02be004f01be004f00be003600f900c4
:10578c00004006003600f800809fbe00829fbe00dd
:10579c00849fbe00869fbe002200f8002400f80003
:1057ac002600f8000000fa00008180000000e800ec
:1057bc0000818800f0808000e50f50002f003a0037
:1057cc001e30ef0020f429007dfe07000018800039
:1057dc0096fe0700d0f4290079fe0700f0f42900aa
:1057ec0077fe07001082800021828000eeec07001b
:1057fc009bfe0700a0f5290071fe0700e0f52900cb
:10580c006ffe0700308180004181800094fe07000c
:10581c0050f629006afe0700c0f6290068fe070052
:10582c002080800031808000000078007ffe07001f
:10583c0000f7290062fe070050f7290060fe070000
:10584c0040808000518080000000780077fe0700c7
:10585c0000f729005afe070090f7290058fe0700b0
:10586c006080800071808000000078006ffe07006f
:10587c0000f8290052fe070003003700f08080007a
:10588c000000e800f080880020818000e10f5000cb
:10589c0004003a001c30ef002630ef002830ef00f7
:1058ac000200370010002000208188000068a90049
:1058bc000080fa002600f9002400f9002200f9000b
:1058cc004f03be004f02be004f01be004f00be0092
:1058dc003600f900004006003600f800809fbe003c
:1058ec00829fbe00849fbe00869fbe002200f800ef
:1058fc002400f8002600f8000000fa00200a8000be
:10590c00e0808800aaf907000028a9002430ef00e5
:10591c00e1808000d0808000808f5000070036002e
:10592c00e1808000d0808000008050008000eb007f
:10593c0050818800618188000800370011088000c0
:10594c00d080800080805000e0808000008040008b
:10595c008000eb005081880061818800e08080002d
:10596c00d08088005081800061818000afec0700fe
:10597c000001be0080d12000f1882400c4eb070098
:10598c0089ec070030818800418188007281800099
:10599c008381800010818000c200dd00a004210002
:1059ac00008040001000be000000510081805900b2
:1059bc007081880081818800128180003081800094
:1059cc0041818000c211dd00a2042100028141004e
:1059dc000089be0010818000c200dd00a0042100ff
:1059ec00008040001001be00708180008181800029
:1059fc00020040008380480070818800818188000b
:105a0c00108180000000e800108188001181800066
:105a1c0000022000808f500001003a002230ef007d
:105a2c0070818000818180004b09dd004500de0023
:105a3c0000007100c588de0030818800418188003b
:105a4c000080fa002600f9002400f9002200f90079
:105a5c004f03be004f02be004f01be004f00be0000
:105a6c003600f900004006003600f800809fbe00aa
:105a7c00829fbe00849fbe00869fbe002200f8005d
:105a8c002400f8002600f8000000fa0048f907008e
:105a9c0000a8a9000080fa002600f9002400f900f3
:105aac002200f9004f03be004f02be004f01be00a2
:105abc004f00be003600f900004006003600f8002a
:105acc00809fbe00829fbe00849fbe00869fbe004a
:105adc002200f8002400f8002600f8000000fa006c
:105aec0033f9070002c8a9000080fa002600f9006b
:105afc002400f9002200f9004f03be004f02be0043
:105b0c004f01be004f00be003600f90000400600f9
:105b1c000000fa00852aa9008d2aa9000248a900d4
:105b2c000080fa00004006003600f800809fbe009e
:105b3c00829fbe00849fbe00869fbe002200f8009c
:105b4c002400f8002600f8000000fa00000880008d
:105b5c00e0808800e1808000d0808000808f500041
:105b6c0007003600e1808000d0808000008050006b
:105b7c008000eb00508188006181880007003700ad
:105b8c00d08080008080ea00e080800000804000af
:105b9c008000eb005081880061818800e0808000eb
:105bac00d080880050818000618180000001be009f
:105bbc0080d727001100200077eb07003081880088
:105bcc004181880072818000838180001081800077
:105bdc00c200dd00a0042100008040001000be00c7
:105bec0000005100818059007081880081818800fb
:105bfc00128180003081800041818000c211dd0063
:105c0c00a2042100028141000089be0010818000a5
:105c1c00c200dd00a0042100008040001001be0085
:105c2c0070818000818180000200400083804800e8
:105c3c007081880081818800108180000000e8005c
:105c4c00108188001181800000022000808f50009c
